:020000040000FA
:100000004815001041020000490200004B020000A8
:100010004D0200004F0200005102000000000000ED
:100020000000000000000000000000004901000086
:100030005502000000000000D10100002102000074
:100040005B0200005B0200005B0200005B0200003C
:100050005B0200005B0200005B0200005B0200002C
:100060005B0200005B0200005B0200005B0200001C
:100070005B0200005B0200005B0200005B0200000C
:100080005B0200005B0200005B0200005B020000FC
:100090005B0200005B0200005B0200005B020000EC
:1000A0005B0200005B0200005B0200005B020000DC
:1000B0005B0200005B0200005B0200005B020000CC
:1000C0005B0200005B0200005B020000DFF80CD066
:1000D00000F038FC004800470D07000048150010EC
:1000E00080F309887047EFF309807047684680F312
:1000F000098804480078C00714BF0220032080F359
:100100001488704778150000DFF818C0EFF30583F6
:100110001B0618BF6047EFF31483DB0708BF604777
:1001200000DF7047450A0000DFF818C0EFF30583D1
:100130001B0618BF6047EFF31483DB0708BF604757
:1001400000DF7047410C0000EFF30980816911F86E
:10015000021C39BB90E80F10E047EFF3098C194BF4
:1001600093E80600914218D059B10CB44FF0010346
:1001700081F826302CE9F00FC1F82CC000F0CEFF3A
:100180000CBC1A60D2F82CC0BCE8F00F92F82630F4
:100190008CF309881BB192F82500CCF800006FF0B1
:1001A000020E704710B5084A1268914209D8074CF0
:1001B00054F8214090E80F10A047EFF3098C8CE829
:1001C0000F0010BD54000010E4020000E402000023
:1001D00000F0D6FE114B93E8060091421BD00CB400
:1001E0004FF0000381F82630EFF3098C2CE9F00F73
:1001F000C1F82CC000F092FF0CBC1A60D2F82CC0E1
:10020000BCE8F00F8CF3098892F826301BB192F805
:100210002530CCF800306FF0020E7047540000100B
:1002200001F04EF8D6E7000000F066F801F048F85B
:10023000D0E70000FEE77047FEE770477047000018
:100240000648804706480047FEE7FEE7FEE7FEE770
:10025000FEE7FEE7FEE7FEE7FEE7FEE747080000F1
:10026000CD0000002DE9F05F0546002092469B4638
:1002700088460646814640241BE0284641464746BC
:10028000224600F04FFB53465A46C01A914110D304
:1002900011461846224600F016F82D1A67EB0108A1
:1002A0004F4622460120002100F00DF817EB00090F
:1002B0004E41201EA4F10104DFDC484631462A46A7
:1002C0004346BDE8F09F202A04DB203A00FA02F101
:1002D000002070479140C2F1200320FA03F3194334
:1002E000904070470000000002E008C8121F08C1DB
:1002F000002AFAD17047704770470700FFFFFFFFE1
:10030000002100E0491C8142FCD3704784484FF42F
:10031000700101604FF000710164490001648900BF
:100320000166704700B5FFF7F1FF7E487C4A083A46
:10033000406810604FF08060906440109064C3008B
:1003400053661920FFF7DCFF936600BD10B5754CAE
:10035000207800F0F00000046060FFF7E3FF2078F1
:100360000007000A6060FFF7DDFFBDE810404FF4B2
:100370007A70C5E700B5FFF7C9FF6A48684A083ACE
:10038000406810604FF0007050644000906483003B
:1003900053661920FFF7B4FF936600BD10B5614C9A
:1003A000207800F0F00000046060FFF7E3FF2078A1
:1003B0000007000A6060FFF7DDFFBDE810404FF462
:1003C0007A709DE7F0B500240646564DC02708E038
:1003D0002860FFF7E3FF641C102C02D12F60FFF7A9
:1003E000B5FF305D0028F3D1F0BD70B54E48C1684F
:1003F00021F47F41C160C16921F44021C161C1691B
:1004000021F44011C161416A21F0407141624448C8
:100410001C38016841F470010160016C41F0007109
:100420000164016C41F080610164016E41F0805112
:100430000166FFF76BFF4FF44860FFF761FF394C2F
:1004400030256560FFF76EFF47F230563046FFF704
:1004500057FF6560FFF766FF3046FFF751FF6560A5
:10046000FFF760FF3046FFF74BFF20206060FFF78B
:1004700059FF3046FFF744FF28202060FFF766FF52
:100480003046FFF73DFF0C202060FFF75FFF4FF481
:1004900048752846FFF734FF06202060FFF756FF17
:1004A0002846FFF72DFF80202060FFF74FFF2846EA
:1004B000BDE8704024E770B500F0C5F900F062F9BE
:1004C000FFF793FF4FF44860FFF71AFF154C8020A9
:1004D0002060FFF73BFF4FF448752846FFF710FFF9
:1004E00004F10800FFF76EFFC0202060FFF72EFF29
:1004F0002846FFF705FF04F11600FFF763FFBDE88C
:10050000704041F28830FBE6064900B501200860E2
:10051000FFF71CFF42F210705DF804EBF0E60000FC
:100520003CC009200000001000C00240854801685E
:1005300041F0020140F8E41B016821F00C01016068
:100540004FF040200021016742F6DF61C1600221C7
:10055000416070474FF0402102224A6001224A6008
:100560008A688242FCD300204860704776490020A8
:10057000C8607648016A41F040610162016A016227
:100580004FF40011C165816B41F080518163704768
:100590006E4B00B5986B40F0006098633220FFF717
:1005A000D9FFD86B40F00060D8636420FFF7D2FF1A
:1005B000986B40F0806098634FF4FA70FFF7CAFFC1
:1005C0003220FFF7C7FF986B40F00060986364200B
:1005D000FFF7C0FF5E48C168491CC16000BD5C49AF
:1005E0005A4A086900F101000861506B10F0007070
:1005F000886104D0506B8001FCD44FF000707047CC
:1006000008B5534C534D4FF6FF7660880022401CCE
:100610006080FF210220DFF840C100DF32466946DA
:100620004E48DFF83CC100DF0099086860612A7D10
:100630009206FCD53030287048481430FFF774FD1E
:10064000E3E714214548DFF81CC100DF00254FF027
:1006500000773F4C4FF6FF76FFF72DFF3F481430F1
:10066000FFF752FD8446FFF7BAFFC4E90150B842D4
:1006700004D12088401C2080FFF78AFF2088CCF816
:100680000000614632463548DFF8DCC000DF02205A
:10069000DFF8D8C0216A00DF0220DFF8D4C000DF15
:1006A000DFF8D0C000DFD7E700231A460121AFF200
:1006B0006D00DFF8C4C000DF254C00231A4601217D
:1006C000E061AFF2C300DFF8B0C000DF20620020BD
:1006D000DFF8A8C000DF1B48016841F00801016095
:1006E0001948016821F0F0010160016841F05001F2
:1006F0000160184883210173002101714E210170AE
:1007000003210173072202724160704710B500F0A7
:100710009AF800F037F8FFF7DEFFFFF707FFFFF763
:1007200025FF0E4804221021143000F024F9FFF7B1
:10073000DDFC00220A21AFF28F00DFF844C000DFA9
:10074000002010BDC4C00F4000C0024000C00920FE
:100750002800001000C00040050C000074000010CC
:10076000C90E0000490D0000250E0000A50B000079
:10077000510B00004115000041130000D51300008B
:100780006911000070B55F4CD4F888005E4D6FEAC7
:1007900010608007D4F80C0100F003000CD028B1E1
:1007A000012841D0022845D003282ED1D4F80401D5
:1007B0005649C0B2401C43E0002128B101280ED0A8
:1007C000022823D0032820D154F8880FC0F3074211
:1007D0002068521CC0F30E00401C4D4909E054F83B
:1007E000880FC0F307422068521CC0F30E0049492D
:1007F000401CA0FB01010023FFF734FDE26F002342
:10080000D2B2521CFFF72EFD286070BD54F8880F3D
:10081000C0F307422068521CC0F30E00401C0904BC
:1008200041EA10410004E6E7D4F804013A49C0B2B5
:10083000401C05E0D4F804014FF40041C0B2401C54
:10084000B1FBF0F0E0E770B52E482021C0F8A01110
:10085000D0F8A011890603D5D0F8A0114906FBD520
:1008600000F180000325C0F884504FF00003C0F869
:100870002831C0F82C314FF00104C0F88C402749D2
:1008800041604FF0AA02C2604FF05501C1600460A0
:10089000C260C160A0F18000D0F888607601FBD50D
:1008A00040F8805FC260C160A0F18000D0F888602D
:1008B00016F0407FFAD000F1A00023264660C26007
:1008C000C1600460C260C160A0F1A000D0F8A8407F
:1008D0006405FBD540F8A05FC260C160B0F1A00024
:1008E000D0F8A81011F4407FFAD00D49C0F8C41018
:1008F000C0F8C831016821F4704141F480410160C1
:1009000070BD000000C00F405000001000093D0005
:1009100000127A0000366E01001BB700630005006C
:10092000DE872804202A04DB203A21FA02F0002185
:10093000704721FA02F3D040C2F1200291400843EF
:1009400019467047064C074D06E0E06840F0010389
:1009500094E8070098471034AC42F6D3FFF7BAFB8F
:1009600094150000B4150000002001E001C1121F21
:10097000002AFBD1704710B5002A06DA22F00042A7
:10098000D21D22F00703102203E0D21C22F0030341
:100990000C2213B19C188C4201D9012010BD0244D5
:1009A00001448360C0E90021C91AD018884202D8E6
:1009B00010600246F9E70020106010BD084800688A
:1009C000C0010BD507480068C00707D0054880382C
:1009D0000068002802DA044901200870704700000E
:1009E000FCED00E0800E00E0600000104FF060427F
:1009F000D36F002BFCD0436BD367D36F002BFCD09D
:100A0000C07840EA0120A2F87C0070474FF06041B6
:100A1000CA6F002AFCD081F87C0070470748016843
:100A20004FF0E0204161002181610721016104480C
:100A3000016841F07F410160401770477415000064
:100A400020ED00E050E8001F31B10B6840E80032B3
:100A5000002AF7D108467047BFF32F8FFAE700004E
:100A600070B50D46002812D04FF6FF71084C884231
:100A700004D222680146104600F0C0FA2068457092
:100A8000044800F0EDF8BDE8704000F059BB70BDBF
:100A9000540000101813001070B51A4DE8680028B3
:100AA0002ED0A88A401EA882002623E0A06838B174
:100AB00061684160606810B1A16881606660A6608D
:100AC00010482146183800F0BDFAA08AA882607844
:100AD000042804D10C49E08A09880844A082012036
:100AE000607084F82500E068E860E06808B105619E
:100AF000E6602661A88A002802D1EC68002CD5D1D6
:100B000070BD0000301300105C00001070B50400D0
:100B10000FD00D4DA17801262868827891420CD91A
:100B200000F0ACFA286846702046BDE8704000F03E
:100B300007BB064800F094F8F7E766702146BDE869
:100B40007040024800F07EBA5400001018130010E4
:100B50000321FFF785BF000010B50446008B084352
:100B600020836278618B062A16D0052A17D10842A5
:100B700015D001EA0002628388432083204600F0FA
:100B800087FA01206070022084F825002146BDE824
:100B90001040034800F056BA31EA0002ECD010BD14
:100BA00018130010024670B5154800EB810050F88C
:100BB000044C002C22D0208B104320836178658B5D
:100BC000062918D0052919D1284217D005EA0001B5
:100BD0006183A8432083204600F05AFA208BA84363
:100BE000208301206070022084F825002046BDE8A3
:100BF0007040FFF78BBF35EA0001EAD070BD0000FE
:100C0000C412001070B503460C480D460468208BD2
:100C100042B133EA000101D0062109E09843208364
:100C2000022070BD10EA030101D06183F6E70521BF
:100C300063832846FFF714FF012070BD54000010A5
:100C4000814202D342688A4201D80120704750E8AD
:100C5000002F0A6040E80012002AF8D100207047F7
:100C60000146406842684A600B780022022B05D09A
:100C7000012B03D0032B01D04260704743680BB1B6
:100C800099604260826070470649074B48681B685C
:100C900082789B789A4202D142684A60704700206D
:100CA00070470000181300105400001070B504467F
:100CB00000201546207001226270A17084F8241073
:100CC0006060A060E06020612062A082E0822083FA
:100CD000608384F8250084F82600208D18B9054823
:100CE000FFF7B0FE206329462046BDE8704000F0C3
:100CF00003B800003002001010B5028D920803D135
:100D00000F4A1288C2F38D02036B03EB8202530772
:100D100000D5121F403A4FF08073C2E90E13002332
:100D20004FEA030442F823405B1C0E2BFAD3C3693D
:100D30001362C2624163006B0249016010BD000092
:100D400070150000A52E5AE20122027000224270A6
:100D500042600281428110398281C1F38F01C181D9
:100D6000704700002DE9F0410F460446416800201D
:100D700004F10C0621B1617802291AD0A189A9B326
:100D8000A189E289914246D2218904EB81010F6158
:100D9000D6E85F1F491CC6E8521F002AF8D12189F6
:100DA000491C89B22181E289914200D12081BDE8AC
:100DB000F081074660702046FFF752FF80F82570EB
:100DC0002189054604EB8101C0690861D6E85F0FFF
:100DD000401CC6E8510F0029F8D12089401C80B280
:100DE0002081E18988420BD1278109E0FFE7204675
:100DF000FFF736FF0546C0690421076085F8251016
:100E000001206870284600F043F92946BDE8F0410A
:100E1000034800F017B9BDE8F0410320FFF70CBA12
:100E2000181300102DE9F04117460D468189254C15
:100E30004268002602B149B1C389994229D1BFB1A4
:100E400020490968BAB100F0FDF81BE0FFF708FF80
:100E50000746C0690560042087F82500384600F081
:100E600017F93846FFF752FE206880F8256026E023
:100E70000120BDE8F081416021684E6021688860F2
:100E80000121417020680821C5613846FFF7E8FD5F
:100E9000EEE7018900EB81010D6100F10C0100BF5B
:100EA000D1E85F2F521CC1E8532F002BF8D10189E4
:100EB000491C89B20181C289914200D1068100207A
:100EC000D7E70000540000102DE9F0410446808966
:100ED0002A4E90460F460025B0B3608904EB80008F
:100EE000006908606089401C80B26081E1898842A5
:100EF00000D165816068E0B12046FFF7B1FE80F85F
:100F000025502189074604EB8101C06908612089C9
:100F1000401C80B22081E189884200D12581384679
:100F200000F0B6F83846FFF7F1FD306880F825503C
:100F300007E00C34D4E85F0F401EC4E8510F0029CD
:100F4000F8D10020BDE8F081FFE7B8F1000F07D02D
:100F50000A496068096828B1204600F073F806E085
:100F60000120EFE7616030684560306884600821E7
:100F70004046FFF775FD3068C761F1E75400001087
:100F800070B51B48012102685170006800F076F8C6
:100F9000184D6C7817E000BF05EBC4014868027873
:100FA000E2B1012A1FD000F09FF8E878641C844267
:100FB00000D100240F48801CD0E84F1F491EC0E814
:100FC000421F002AF8D1A8780028E5D16C700A48A1
:100FD000FFF746FEBDE8704000F0B2B8098989B25B
:100FE000FFF7BAFDE1E78968FFF7BCFEDDE7000027
:100FF000540000104012001018130010104A10B5D1
:10100000D368ABB113469B8A03E08CB12246A48A15
:101010002344D4688B42F8D3C460D0600261C468B2
:1010200004B12061591A8182908A401A908210BDC1
:101030000024C460D060C91A02619182848210BD0C
:101040003013001030B502780023022A03D0012AA1
:1010500001D0032A00D101238C7800E010464268B9
:1010600012B19578A542F9D24A6041601BB102B134
:101070009160886030BD0020FBE7000003494A68AA
:101080004260002282604860704700001813001020
:1010900010B5016900290ED0C268CA60C368002279
:1010A0003BB18B8A848A23448B82C3681961C260F6
:1010B00000E08A82026110BD816839B142684A60ED
:1010C0004168002901D0806888607047054906E0C2
:1010D0004A68824202D14068486070471146002940
:1010E000F6D170471813001010B5416879B1FFF7B9
:1010F000B7FD0446FFF7CCFF01206070032084F8A1
:1011000025002146BDE810400348FFF79BBF4188FA
:10111000491C418010BD00001813001006480068EB
:10112000D0E90B10814203D300680449884202D001
:101130000120FFF781B8704754000010A52E5AE235
:101140000749022248604270064A1278002A05D0F8
:1011500006C98A4202D0C078FFF758BC7047000029
:1011600054000010600000102DE9F0471646884634
:101170008146FFF723FC002004463E4A3E4902E038
:1011800042F82040401C0B889842F9D33B48382253
:1011900001883B48FFF7EFFB3A48008880B240F0F7
:1011A0000042394801683948FFF7E5FB3848082212
:1011B000018838480068FFF7DEFB374FFF25374AC4
:1011C000FD703C8500213846FFF770FD344804214E
:1011D0000170446033480170C46004618482F86A1D
:1011E0002030FEF77DFF30483149076002207870DB
:1011F0002E48047044700978C170FFF71EF82D481E
:10120000016841F47F0101600068290601EA0020BD
:101210002849C0431439B0FA80F00968C0F10800C9
:10122000C1F30221814200DB481C2249091F0B68DF
:101230006FF08072824063F317020A60FFF7EEFBE3
:101240001D49002808600CDB1C49455400F01F02B2
:101250000121914040114FF0E02202EB8000C0F8E4
:101260000011324641464846BDE8F047002300F0F1
:1012700067B80000C4120010FA02000084150000D4
:101280009800001070150000881500003002001052
:101290008E1500004C000010E01200103502000016
:1012A00018130010301300105400001040120010EA
:1012B0008C15000020ED00E06800001000E400E064
:1012C0000C4810B50268012151700068FFF7D6FE86
:1012D000FEF7B4FF08480168491C0160FFF7DCFB1A
:1012E00000F00EF80548FFF7BBFCBDE81040FFF723
:1012F00027BF0000540000105C00001018130010FD
:1013000070B50D4C2068002815D0A0880B4E401EEB
:10131000A0800AE0E888FEF78EFFA888A0802868F1
:10132000206029463068FFF78BFCA088002802D196
:101330002568002DEED170BD6C0000104C0000102F
:101340002DE9F0411E46174680460C4611F0FF0F6E
:1013500000D14C1C1A48FFF775FB05002DD0C4F3D3
:101360000F202F632885E1B242462846EE61FFF741
:101370009DFC01241348144906E000BF00EB8402E1
:1013800052F8042C22B1641C0A889442F6D9002435
:1013900000EB8400E6B240F8045C0C48EE70007884
:1013A00018B101212846FFF721FB2846FFF7AEFBC5
:1013B0000748006880F825602046BDE8F0810000FD
:1013C00098000010C4120010FA0200006000001023
:1013D000540000102DE9F05F544DDFF848B1DFF8FC
:1013E00048A129684FF000084FF00509012610B107
:1013F000CA7882423FD1474681F80180FEF773FEEA
:101400002968C862FFF78AFE2868B046046A18E0B7
:101410006068A8B12046FFF723FC064680F82590B7
:10142000FFF736FE86F8018031464148FFF70AFE95
:10143000A4F80280A660316AE1603462E46800E0EA
:10144000E468002CE4D12868C2780AEB820141F8F4
:10145000047C016B3748FFF7F3FB286807639BF8B0
:10146000001011B10021FFF7C1FA33482968FFF7D6
:10147000E7FB2F6051E03149098888420ED80AEB1A
:10148000800757F8045C4DB12846FFF715FE284643
:10149000FFF7FEFDCA46B1462C6A1BE0FF20BDE8FF
:1014A000F09F6068A8B12046FFF7DAFB064680F897
:1014B00025A0FFF7EDFD86F8019031461C48FFF7A7
:1014C000C1FDA4F80290A660316AE1603462E4686C
:1014D00000E0E468002CE4D147F8048C4446154849
:1014E000296BFFF7ADFB2C639BF8000018B10021BE
:1014F0002846FFF77BFA29460F48FFF7A1FB0C4867
:1015000040688278094801688B789A4208D981F846
:10151000019001680648FFF795FD0020FFF7F6FAF5
:101520000020BCE760000010C4120010540000103E
:10153000181300103002001098000010FA0200008A
:1015400070B5FFF7A1FB04000CD0074D07482968D0
:10155000FFF778FD2968012048702046BDE87040FB
:10156000FFF7EEBD70BD000054000010181300100E
:10157000000200013F420F000000000010270000A1
:101580000000000094010000101000001000000096
:1015900049000400B41500000000001074000000B1
:1015A000E80200002816000074000010D4140000A7
:1015B0006809000000000000000000004A61692086
:1015C0005368726972616D00000057656C636F6DDE
:1015D0006520746F204B4C450000000000000000A7
:1015E00000000000000000000000000000000000FB
:1015F00000000000000000000000000000000000EB
:101600000000000000E1F5050000000000000000FF
:1016100000000000000000000000000000000000CA
:081620000000000000000000C2
:04000005000000CD2A
:00000001FF
